{
  "_format": "hh-sol-artifact-1",
  "contractName": "myGame",
  "sourceName": "contracts/myGame.sol",
  "abi": [
    {
      "inputs": [
        {
          "internalType": "string[]",
          "name": "characterNames",
          "type": "string[]"
        },
        {
          "internalType": "string[]",
          "name": "characterImageURIs",
          "type": "string[]"
        },
        {
          "internalType": "uint256[]",
          "name": "characterHp",
          "type": "uint256[]"
        },
        {
          "internalType": "uint256[]",
          "name": "characterForce",
          "type": "uint256[]"
        },
        {
          "internalType": "uint256[]",
          "name": "characterAttackDmg",
          "type": "uint256[]"
        },
        {
          "internalType": "string",
          "name": "bossName",
          "type": "string"
        },
        {
          "internalType": "string",
          "name": "bossImageURI",
          "type": "string"
        },
        {
          "internalType": "uint256",
          "name": "bossHp",
          "type": "uint256"
        },
        {
          "internalType": "uint256",
          "name": "bossForce",
          "type": "uint256"
        },
        {
          "internalType": "uint256",
          "name": "bossAttackDmg",
          "type": "uint256"
        }
      ],
      "stateMutability": "nonpayable",
      "type": "constructor"
    },
    {
      "anonymous": false,
      "inputs": [
        {
          "indexed": true,
          "internalType": "address",
          "name": "owner",
          "type": "address"
        },
        {
          "indexed": true,
          "internalType": "address",
          "name": "approved",
          "type": "address"
        },
        {
          "indexed": true,
          "internalType": "uint256",
          "name": "tokenId",
          "type": "uint256"
        }
      ],
      "name": "Approval",
      "type": "event"
    },
    {
      "anonymous": false,
      "inputs": [
        {
          "indexed": true,
          "internalType": "address",
          "name": "owner",
          "type": "address"
        },
        {
          "indexed": true,
          "internalType": "address",
          "name": "operator",
          "type": "address"
        },
        {
          "indexed": false,
          "internalType": "bool",
          "name": "approved",
          "type": "bool"
        }
      ],
      "name": "ApprovalForAll",
      "type": "event"
    },
    {
      "anonymous": false,
      "inputs": [
        {
          "indexed": true,
          "internalType": "address",
          "name": "from",
          "type": "address"
        },
        {
          "indexed": true,
          "internalType": "address",
          "name": "to",
          "type": "address"
        },
        {
          "indexed": true,
          "internalType": "uint256",
          "name": "tokenId",
          "type": "uint256"
        }
      ],
      "name": "Transfer",
      "type": "event"
    },
    {
      "anonymous": false,
      "inputs": [
        {
          "indexed": false,
          "internalType": "uint256",
          "name": "newBossHp",
          "type": "uint256"
        },
        {
          "indexed": false,
          "internalType": "uint256",
          "name": "newPlayerHp",
          "type": "uint256"
        }
      ],
      "name": "attackComplete",
      "type": "event"
    },
    {
      "anonymous": false,
      "inputs": [
        {
          "indexed": false,
          "internalType": "address",
          "name": "sender",
          "type": "address"
        },
        {
          "indexed": false,
          "internalType": "uint256",
          "name": "tokenId",
          "type": "uint256"
        },
        {
          "indexed": false,
          "internalType": "uint256",
          "name": "characterIndex",
          "type": "uint256"
        }
      ],
      "name": "charNFTMinted",
      "type": "event"
    },
    {
      "inputs": [
        {
          "internalType": "address",
          "name": "to",
          "type": "address"
        },
        {
          "internalType": "uint256",
          "name": "tokenId",
          "type": "uint256"
        }
      ],
      "name": "approve",
      "outputs": [],
      "stateMutability": "nonpayable",
      "type": "function"
    },
    {
      "inputs": [],
      "name": "attackBoss",
      "outputs": [],
      "stateMutability": "nonpayable",
      "type": "function"
    },
    {
      "inputs": [
        {
          "internalType": "address",
          "name": "owner",
          "type": "address"
        }
      ],
      "name": "balanceOf",
      "outputs": [
        {
          "internalType": "uint256",
          "name": "",
          "type": "uint256"
        }
      ],
      "stateMutability": "view",
      "type": "function"
    },
    {
      "inputs": [],
      "name": "bossChar",
      "outputs": [
        {
          "internalType": "string",
          "name": "name",
          "type": "string"
        },
        {
          "internalType": "string",
          "name": "imageURI",
          "type": "string"
        },
        {
          "internalType": "uint256",
          "name": "hp",
          "type": "uint256"
        },
        {
          "internalType": "uint256",
          "name": "maxHp",
          "type": "uint256"
        },
        {
          "internalType": "uint256",
          "name": "force",
          "type": "uint256"
        },
        {
          "internalType": "uint256",
          "name": "maxForce",
          "type": "uint256"
        },
        {
          "internalType": "uint256",
          "name": "attackDmg",
          "type": "uint256"
        }
      ],
      "stateMutability": "view",
      "type": "function"
    },
    {
      "inputs": [],
      "name": "checkIfUserHasNFT",
      "outputs": [
        {
          "components": [
            {
              "internalType": "uint256",
              "name": "characterIndex",
              "type": "uint256"
            },
            {
              "internalType": "string",
              "name": "name",
              "type": "string"
            },
            {
              "internalType": "string",
              "name": "imageURI",
              "type": "string"
            },
            {
              "internalType": "uint256",
              "name": "hp",
              "type": "uint256"
            },
            {
              "internalType": "uint256",
              "name": "maxHp",
              "type": "uint256"
            },
            {
              "internalType": "uint256",
              "name": "force",
              "type": "uint256"
            },
            {
              "internalType": "uint256",
              "name": "maxForce",
              "type": "uint256"
            },
            {
              "internalType": "uint256",
              "name": "attackDmg",
              "type": "uint256"
            }
          ],
          "internalType": "struct myGame.characterAttr",
          "name": "",
          "type": "tuple"
        }
      ],
      "stateMutability": "view",
      "type": "function"
    },
    {
      "inputs": [
        {
          "internalType": "uint256",
          "name": "tokenId",
          "type": "uint256"
        }
      ],
      "name": "getApproved",
      "outputs": [
        {
          "internalType": "address",
          "name": "",
          "type": "address"
        }
      ],
      "stateMutability": "view",
      "type": "function"
    },
    {
      "inputs": [],
      "name": "getBoss",
      "outputs": [
        {
          "components": [
            {
              "internalType": "string",
              "name": "name",
              "type": "string"
            },
            {
              "internalType": "string",
              "name": "imageURI",
              "type": "string"
            },
            {
              "internalType": "uint256",
              "name": "hp",
              "type": "uint256"
            },
            {
              "internalType": "uint256",
              "name": "maxHp",
              "type": "uint256"
            },
            {
              "internalType": "uint256",
              "name": "force",
              "type": "uint256"
            },
            {
              "internalType": "uint256",
              "name": "maxForce",
              "type": "uint256"
            },
            {
              "internalType": "uint256",
              "name": "attackDmg",
              "type": "uint256"
            }
          ],
          "internalType": "struct myGame.bossAttr",
          "name": "",
          "type": "tuple"
        }
      ],
      "stateMutability": "view",
      "type": "function"
    },
    {
      "inputs": [],
      "name": "getDefaultCharacters",
      "outputs": [
        {
          "components": [
            {
              "internalType": "uint256",
              "name": "characterIndex",
              "type": "uint256"
            },
            {
              "internalType": "string",
              "name": "name",
              "type": "string"
            },
            {
              "internalType": "string",
              "name": "imageURI",
              "type": "string"
            },
            {
              "internalType": "uint256",
              "name": "hp",
              "type": "uint256"
            },
            {
              "internalType": "uint256",
              "name": "maxHp",
              "type": "uint256"
            },
            {
              "internalType": "uint256",
              "name": "force",
              "type": "uint256"
            },
            {
              "internalType": "uint256",
              "name": "maxForce",
              "type": "uint256"
            },
            {
              "internalType": "uint256",
              "name": "attackDmg",
              "type": "uint256"
            }
          ],
          "internalType": "struct myGame.characterAttr[]",
          "name": "",
          "type": "tuple[]"
        }
      ],
      "stateMutability": "view",
      "type": "function"
    },
    {
      "inputs": [
        {
          "internalType": "address",
          "name": "owner",
          "type": "address"
        },
        {
          "internalType": "address",
          "name": "operator",
          "type": "address"
        }
      ],
      "name": "isApprovedForAll",
      "outputs": [
        {
          "internalType": "bool",
          "name": "",
          "type": "bool"
        }
      ],
      "stateMutability": "view",
      "type": "function"
    },
    {
      "inputs": [
        {
          "internalType": "uint256",
          "name": "_characterIndex",
          "type": "uint256"
        }
      ],
      "name": "mintCharNFT",
      "outputs": [],
      "stateMutability": "nonpayable",
      "type": "function"
    },
    {
      "inputs": [],
      "name": "name",
      "outputs": [
        {
          "internalType": "string",
          "name": "",
          "type": "string"
        }
      ],
      "stateMutability": "view",
      "type": "function"
    },
    {
      "inputs": [
        {
          "internalType": "uint256",
          "name": "",
          "type": "uint256"
        }
      ],
      "name": "nftHolderAttributes",
      "outputs": [
        {
          "internalType": "uint256",
          "name": "characterIndex",
          "type": "uint256"
        },
        {
          "internalType": "string",
          "name": "name",
          "type": "string"
        },
        {
          "internalType": "string",
          "name": "imageURI",
          "type": "string"
        },
        {
          "internalType": "uint256",
          "name": "hp",
          "type": "uint256"
        },
        {
          "internalType": "uint256",
          "name": "maxHp",
          "type": "uint256"
        },
        {
          "internalType": "uint256",
          "name": "force",
          "type": "uint256"
        },
        {
          "internalType": "uint256",
          "name": "maxForce",
          "type": "uint256"
        },
        {
          "internalType": "uint256",
          "name": "attackDmg",
          "type": "uint256"
        }
      ],
      "stateMutability": "view",
      "type": "function"
    },
    {
      "inputs": [
        {
          "internalType": "address",
          "name": "",
          "type": "address"
        }
      ],
      "name": "nftHolders",
      "outputs": [
        {
          "internalType": "uint256",
          "name": "",
          "type": "uint256"
        }
      ],
      "stateMutability": "view",
      "type": "function"
    },
    {
      "inputs": [
        {
          "internalType": "uint256",
          "name": "tokenId",
          "type": "uint256"
        }
      ],
      "name": "ownerOf",
      "outputs": [
        {
          "internalType": "address",
          "name": "",
          "type": "address"
        }
      ],
      "stateMutability": "view",
      "type": "function"
    },
    {
      "inputs": [
        {
          "internalType": "address",
          "name": "from",
          "type": "address"
        },
        {
          "internalType": "address",
          "name": "to",
          "type": "address"
        },
        {
          "internalType": "uint256",
          "name": "tokenId",
          "type": "uint256"
        }
      ],
      "name": "safeTransferFrom",
      "outputs": [],
      "stateMutability": "nonpayable",
      "type": "function"
    },
    {
      "inputs": [
        {
          "internalType": "address",
          "name": "from",
          "type": "address"
        },
        {
          "internalType": "address",
          "name": "to",
          "type": "address"
        },
        {
          "internalType": "uint256",
          "name": "tokenId",
          "type": "uint256"
        },
        {
          "internalType": "bytes",
          "name": "_data",
          "type": "bytes"
        }
      ],
      "name": "safeTransferFrom",
      "outputs": [],
      "stateMutability": "nonpayable",
      "type": "function"
    },
    {
      "inputs": [
        {
          "internalType": "address",
          "name": "operator",
          "type": "address"
        },
        {
          "internalType": "bool",
          "name": "approved",
          "type": "bool"
        }
      ],
      "name": "setApprovalForAll",
      "outputs": [],
      "stateMutability": "nonpayable",
      "type": "function"
    },
    {
      "inputs": [
        {
          "internalType": "bytes4",
          "name": "interfaceId",
          "type": "bytes4"
        }
      ],
      "name": "supportsInterface",
      "outputs": [
        {
          "internalType": "bool",
          "name": "",
          "type": "bool"
        }
      ],
      "stateMutability": "view",
      "type": "function"
    },
    {
      "inputs": [],
      "name": "symbol",
      "outputs": [
        {
          "internalType": "string",
          "name": "",
          "type": "string"
        }
      ],
      "stateMutability": "view",
      "type": "function"
    },
    {
      "inputs": [
        {
          "internalType": "uint256",
          "name": "_tokenId",
          "type": "uint256"
        }
      ],
      "name": "tokenURI",
      "outputs": [
        {
          "internalType": "string",
          "name": "",
          "type": "string"
        }
      ],
      "stateMutability": "view",
      "type": "function"
    },
    {
      "inputs": [
        {
          "internalType": "address",
          "name": "from",
          "type": "address"
        },
        {
          "internalType": "address",
          "name": "to",
          "type": "address"
        },
        {
          "internalType": "uint256",
          "name": "tokenId",
          "type": "uint256"
        }
      ],
      "name": "transferFrom",
      "outputs": [],
      "stateMutability": "nonpayable",
      "type": "function"
    }
  ],
  "bytecode": "0x60806040523480156200001157600080fd5b5060405162005ef538038062005ef5833981810160405281019062000037919062000bbd565b6040518060400160405280600c81526020017f5374617246696768744c6f7800000000000000000000000000000000000000008152506040518060400160405280600381526020017f4c4f5800000000000000000000000000000000000000000000000000000000008152508160009080519060200190620000bb92919062000925565b508060019080519060200190620000d492919062000925565b505050620001226040518060400160405280601981526020017f49276d20616e204e46542067616d6520636f6e747261637421000000000000008152506200079760201b62001d181760201c565b60005b8a51811015620005f65760076040518061010001604052808381526020018d84815181106200017d577f4e487b7100000000000000000000000000000000000000000000000000000000600052603260045260246000fd5b602002602001015181526020018c8481518110620001c4577f4e487b7100000000000000000000000000000000000000000000000000000000600052603260045260246000fd5b602002602001015181526020018b84815181106200020b577f4e487b7100000000000000000000000000000000000000000000000000000000600052603260045260246000fd5b602002602001015181526020018b848151811062000252577f4e487b7100000000000000000000000000000000000000000000000000000000600052603260045260246000fd5b602002602001015181526020018a848151811062000299577f4e487b7100000000000000000000000000000000000000000000000000000000600052603260045260246000fd5b602002602001015181526020018a8481518110620002e0577f4e487b7100000000000000000000000000000000000000000000000000000000600052603260045260246000fd5b6020026020010151815260200189848151811062000327577f4e487b7100000000000000000000000000000000000000000000000000000000600052603260045260246000fd5b602002602001015181525090806001815401808255809150506001900390600052602060002090600802016000909190919091506000820151816000015560208201518160010190805190602001906200038392919062000925565b506040820151816002019080519060200190620003a292919062000925565b50606082015181600301556080820151816004015560a0820151816005015560c0820151816006015560e08201518160070155505060006007828154811062000414577f4e487b7100000000000000000000000000000000000000000000000000000000600052603260045260246000fd5b906000526020600020906008020160405180610100016040529081600082015481526020016001820180546200044a9062000fa3565b80601f0160208091040260200160405190810160405280929190818152602001828054620004789062000fa3565b8015620004c95780601f106200049d57610100808354040283529160200191620004c9565b820191906000526020600020905b815481529060010190602001808311620004ab57829003601f168201915b50505050508152602001600282018054620004e49062000fa3565b80601f0160208091040260200160405190810160405280929190818152602001828054620005129062000fa3565b8015620005635780601f10620005375761010080835404028352916020019162000563565b820191906000526020600020905b8154815290600101906020018083116200054557829003601f168201915b50505050508152602001600382015481526020016004820154815260200160058201548152602001600682015481526020016007820154815250509050620005de60405180606001604052806023815260200162005ed260239139826020015183606001518460a001516200083a60201b62001db11760201c565b50600181620005ee919062000f06565b905062000125565b506040518060e0016040528086815260200185815260200184815260200184815260200183815260200183815260200182815250600860008201518160000190805190602001906200064a92919062000925565b5060208201518160010190805190602001906200066992919062000925565b5060408201518160020155606082015181600301556080820151816004015560a0820151816005015560c082015181600601559050506200077060405180606001604052806028815260200162005eaa6028913960086000018054620006cf9062000fa3565b80601f0160208091040260200160405190810160405280929190818152602001828054620006fd9062000fa3565b80156200074e5780601f1062000722576101008083540402835291602001916200074e565b820191906000526020600020905b8154815290600101906020018083116200073057829003601f168201915b50505050506008600201546008600401546200083a60201b62001db11760201c565b620007876006620008e660201b62001e531760201c565b50505050505050505050620010c7565b6200083781604051602401620007ae919062000dae565b6040516020818303038152906040527f41304fac000000000000000000000000000000000000000000000000000000007bffffffffffffffffffffffffffffffffffffffffffffffffffffffff19166020820180517bffffffffffffffffffffffffffffffffffffffffffffffffffffffff8381831617835250505050620008fc60201b60201c565b50565b620008e08484848460405160240162000857949392919062000dd2565b6040516020818303038152906040527fd5cf17d0000000000000000000000000000000000000000000000000000000007bffffffffffffffffffffffffffffffffffffffffffffffffffffffff19166020820180517bffffffffffffffffffffffffffffffffffffffffffffffffffffffff8381831617835250505050620008fc60201b60201c565b50505050565b6001816000016000828254019250508190555050565b60008151905060006a636f6e736f6c652e6c6f679050602083016000808483855afa5050505050565b828054620009339062000fa3565b90600052602060002090601f016020900481019282620009575760008555620009a3565b82601f106200097257805160ff1916838001178555620009a3565b82800160010185558215620009a3579182015b82811115620009a257825182559160200191906001019062000985565b5b509050620009b29190620009b6565b5090565b5b80821115620009d1576000816000905550600101620009b7565b5090565b6000620009ec620009e68462000e56565b62000e2d565b9050808382526020820190508285602086028201111562000a0c57600080fd5b60005b8581101562000a5b57815167ffffffffffffffff81111562000a3057600080fd5b80860162000a3f898262000b79565b8552602085019450602084019350505060018101905062000a0f565b5050509392505050565b600062000a7c62000a768462000e85565b62000e2d565b9050808382526020820190508285602086028201111562000a9c57600080fd5b60005b8581101562000ad0578162000ab5888262000ba6565b84526020840193506020830192505060018101905062000a9f565b5050509392505050565b600062000af162000aeb8462000eb4565b62000e2d565b90508281526020810184848401111562000b0a57600080fd5b62000b1784828562000f6d565b509392505050565b600082601f83011262000b3157600080fd5b815162000b43848260208601620009d5565b91505092915050565b600082601f83011262000b5e57600080fd5b815162000b7084826020860162000a65565b91505092915050565b600082601f83011262000b8b57600080fd5b815162000b9d84826020860162000ada565b91505092915050565b60008151905062000bb781620010ad565b92915050565b6000806000806000806000806000806101408b8d03121562000bde57600080fd5b60008b015167ffffffffffffffff81111562000bf957600080fd5b62000c078d828e0162000b1f565b9a505060208b015167ffffffffffffffff81111562000c2557600080fd5b62000c338d828e0162000b1f565b99505060408b015167ffffffffffffffff81111562000c5157600080fd5b62000c5f8d828e0162000b4c565b98505060608b015167ffffffffffffffff81111562000c7d57600080fd5b62000c8b8d828e0162000b4c565b97505060808b015167ffffffffffffffff81111562000ca957600080fd5b62000cb78d828e0162000b4c565b96505060a08b015167ffffffffffffffff81111562000cd557600080fd5b62000ce38d828e0162000b79565b95505060c08b015167ffffffffffffffff81111562000d0157600080fd5b62000d0f8d828e0162000b79565b94505060e062000d228d828e0162000ba6565b93505061010062000d368d828e0162000ba6565b92505061012062000d4a8d828e0162000ba6565b9150509295989b9194979a5092959850565b600062000d698262000eea565b62000d75818562000ef5565b935062000d8781856020860162000f6d565b62000d92816200109c565b840191505092915050565b62000da88162000f63565b82525050565b6000602082019050818103600083015262000dca818462000d5c565b905092915050565b6000608082019050818103600083015262000dee818762000d5c565b9050818103602083015262000e04818662000d5c565b905062000e15604083018562000d9d565b62000e24606083018462000d9d565b95945050505050565b600062000e3962000e4c565b905062000e47828262000fd9565b919050565b6000604051905090565b600067ffffffffffffffff82111562000e745762000e736200106d565b5b602082029050602081019050919050565b600067ffffffffffffffff82111562000ea35762000ea26200106d565b5b602082029050602081019050919050565b600067ffffffffffffffff82111562000ed25762000ed16200106d565b5b62000edd826200109c565b9050602081019050919050565b600081519050919050565b600082825260208201905092915050565b600062000f138262000f63565b915062000f208362000f63565b9250827fffffffffffffffffffffffffffffffffffffffffffffffffffffffffffffffff0382111562000f585762000f576200100f565b5b828201905092915050565b6000819050919050565b60005b8381101562000f8d57808201518184015260208101905062000f70565b8381111562000f9d576000848401525b50505050565b6000600282049050600182168062000fbc57607f821691505b6020821081141562000fd35762000fd26200103e565b5b50919050565b62000fe4826200109c565b810181811067ffffffffffffffff821117156200100657620010056200106d565b5b80604052505050565b7f4e487b7100000000000000000000000000000000000000000000000000000000600052601160045260246000fd5b7f4e487b7100000000000000000000000000000000000000000000000000000000600052602260045260246000fd5b7f4e487b7100000000000000000000000000000000000000000000000000000000600052604160045260246000fd5b6000601f19601f8301169050919050565b620010b88162000f63565b8114620010c457600080fd5b50565b614dd380620010d76000396000f3fe608060405234801561001057600080fd5b50600436106101375760003560e01c80637df124a1116100b8578063bc7efa121161007c578063bc7efa1214610365578063c76d9e7d14610389578063c87b56dd146103a7578063c8cf27f4146103d7578063d4f24c5b146103f5578063e985e9c5146103ff57610137565b80637df124a1146102a857806395d89b41146102d857806398da4c95146102f6578063a22cb4651461032d578063b88d4fde1461034957610137565b806342842e0e116100ff57806342842e0e146101f25780636352211e1461020e57806370a082311461023e57806374bce80a1461026e5780637ba8b8d61461028c57610137565b806301ffc9a71461013c57806306fdde031461016c578063081812fc1461018a578063095ea7b3146101ba57806323b872dd146101d6575b600080fd5b61015660048036038101906101519190613212565b61042f565b6040516101639190613c3a565b60405180910390f35b610174610511565b6040516101819190613c55565b60405180910390f35b6101a4600480360381019061019f9190613264565b6105a3565b6040516101b19190613b7a565b60405180910390f35b6101d460048036038101906101cf91906131d6565b610628565b005b6101f060048036038101906101eb91906130d0565b610740565b005b61020c600480360381019061020791906130d0565b6107a0565b005b61022860048036038101906102239190613264565b6107c0565b6040516102359190613b7a565b60405180910390f35b6102586004803603810190610253919061306b565b610872565b604051610265919061401e565b60405180910390f35b61027661092a565b6040516102839190613c18565b60405180910390f35b6102a660048036038101906102a19190613264565b610aea565b005b6102c260048036038101906102bd919061306b565b610f95565b6040516102cf919061401e565b60405180910390f35b6102e0610fad565b6040516102ed9190613c55565b60405180910390f35b610310600480360381019061030b9190613264565b61103f565b604051610324989796959493929190614039565b60405180910390f35b6103476004803603810190610342919061319a565b611197565b005b610363600480360381019061035e919061311f565b6111ad565b005b61036d61120f565b6040516103809796959493929190613d0f565b60405180910390f35b61039161134f565b60405161039e9190613fda565b60405180910390f35b6103c160048036038101906103bc9190613264565b6114bf565b6040516103ce9190613c55565b60405180910390f35b6103df611717565b6040516103ec9190613ffc565b60405180910390f35b6103fd611904565b005b61041960048036038101906104149190613094565b611c84565b6040516104269190613c3a565b60405180910390f35b60007f80ac58cd000000000000000000000000000000000000000000000000000000007bffffffffffffffffffffffffffffffffffffffffffffffffffffffff1916827bffffffffffffffffffffffffffffffffffffffffffffffffffffffff191614806104fa57507f5b5e139f000000000000000000000000000000000000000000000000000000007bffffffffffffffffffffffffffffffffffffffffffffffffffffffff1916827bffffffffffffffffffffffffffffffffffffffffffffffffffffffff1916145b8061050a575061050982611e69565b5b9050919050565b6060600080546105209061439c565b80601f016020809104026020016040519081016040528092919081815260200182805461054c9061439c565b80156105995780601f1061056e57610100808354040283529160200191610599565b820191906000526020600020905b81548152906001019060200180831161057c57829003601f168201915b5050505050905090565b60006105ae82611ed3565b6105ed576040517f08c379a00000000000000000000000000000000000000000000000000000000081526004016105e490613f5a565b60405180910390fd5b6004600083815260200190815260200160002060009054906101000a900473ffffffffffffffffffffffffffffffffffffffff169050919050565b6000610633826107c0565b90508073ffffffffffffffffffffffffffffffffffffffff168373ffffffffffffffffffffffffffffffffffffffff1614156106a4576040517f08c379a000000000000000000000000000000000000000000000000000000000815260040161069b90613f9a565b60405180910390fd5b8073ffffffffffffffffffffffffffffffffffffffff166106c3611f3f565b73ffffffffffffffffffffffffffffffffffffffff1614806106f257506106f1816106ec611f3f565b611c84565b5b610731576040517f08c379a000000000000000000000000000000000000000000000000000000000815260040161072890613e9a565b60405180910390fd5b61073b8383611f47565b505050565b61075161074b611f3f565b82612000565b610790576040517f08c379a000000000000000000000000000000000000000000000000000000000815260040161078790613fba565b60405180910390fd5b61079b8383836120de565b505050565b6107bb838383604051806020016040528060008152506111ad565b505050565b6000806002600084815260200190815260200160002060009054906101000a900473ffffffffffffffffffffffffffffffffffffffff169050600073ffffffffffffffffffffffffffffffffffffffff168173ffffffffffffffffffffffffffffffffffffffff161415610869576040517f08c379a000000000000000000000000000000000000000000000000000000000815260040161086090613efa565b60405180910390fd5b80915050919050565b60008073ffffffffffffffffffffffffffffffffffffffff168273ffffffffffffffffffffffffffffffffffffffff1614156108e3576040517f08c379a00000000000000000000000000000000000000000000000000000000081526004016108da90613eda565b60405180910390fd5b600360008373ffffffffffffffffffffffffffffffffffffffff1673ffffffffffffffffffffffffffffffffffffffff168152602001908152602001600020549050919050565b60606007805480602002602001604051908101604052809291908181526020016000905b82821015610ae15783829060005260206000209060080201604051806101000160405290816000820154815260200160018201805461098c9061439c565b80601f01602080910402602001604051908101604052809291908181526020018280546109b89061439c565b8015610a055780601f106109da57610100808354040283529160200191610a05565b820191906000526020600020905b8154815290600101906020018083116109e857829003601f168201915b50505050508152602001600282018054610a1e9061439c565b80601f0160208091040260200160405190810160405280929190818152602001828054610a4a9061439c565b8015610a975780601f10610a6c57610100808354040283529160200191610a97565b820191906000526020600020905b815481529060010190602001808311610a7a57829003601f168201915b50505050508152602001600382015481526020016004820154815260200160058201548152602001600682015481526020016007820154815250508152602001906001019061094e565b50505050905090565b6000610af6600661233a565b9050610b023382612348565b60405180610100016040528083815260200160078481548110610b4e577f4e487b7100000000000000000000000000000000000000000000000000000000600052603260045260246000fd5b90600052602060002090600802016001018054610b6a9061439c565b80601f0160208091040260200160405190810160405280929190818152602001828054610b969061439c565b8015610be35780601f10610bb857610100808354040283529160200191610be3565b820191906000526020600020905b815481529060010190602001808311610bc657829003601f168201915b5050505050815260200160078481548110610c27577f4e487b7100000000000000000000000000000000000000000000000000000000600052603260045260246000fd5b90600052602060002090600802016002018054610c439061439c565b80601f0160208091040260200160405190810160405280929190818152602001828054610c6f9061439c565b8015610cbc5780601f10610c9157610100808354040283529160200191610cbc565b820191906000526020600020905b815481529060010190602001808311610c9f57829003601f168201915b5050505050815260200160078481548110610d00577f4e487b7100000000000000000000000000000000000000000000000000000000600052603260045260246000fd5b906000526020600020906008020160030154815260200160078481548110610d51577f4e487b7100000000000000000000000000000000000000000000000000000000600052603260045260246000fd5b906000526020600020906008020160040154815260200160078481548110610da2577f4e487b7100000000000000000000000000000000000000000000000000000000600052603260045260246000fd5b906000526020600020906008020160050154815260200160078481548110610df3577f4e487b7100000000000000000000000000000000000000000000000000000000600052603260045260246000fd5b906000526020600020906008020160060154815260200160078481548110610e44577f4e487b7100000000000000000000000000000000000000000000000000000000600052603260045260246000fd5b906000526020600020906008020160070154815250600f6000838152602001908152602001600020600082015181600001556020820151816001019080519060200190610e92929190612e75565b506040820151816002019080519060200190610eaf929190612e75565b50606082015181600301556080820151816004015560a0820151816005015560c0820151816006015560e08201518160070155905050610f08604051806060016040528060308152602001614d6e603091398284612366565b80601060003373ffffffffffffffffffffffffffffffffffffffff1673ffffffffffffffffffffffffffffffffffffffff16815260200190815260200160002081905550610f566006611e53565b7fe27a922b8f6b96cfd7c8cb935e7e8d1ab4f38b7d0c13273bb5f8463e84a2704e338284604051610f8993929190613be1565b60405180910390a15050565b60106020528060005260406000206000915090505481565b606060018054610fbc9061439c565b80601f0160208091040260200160405190810160405280929190818152602001828054610fe89061439c565b80156110355780601f1061100a57610100808354040283529160200191611035565b820191906000526020600020905b81548152906001019060200180831161101857829003601f168201915b5050505050905090565b600f6020528060005260406000206000915090508060000154908060010180546110689061439c565b80601f01602080910402602001604051908101604052809291908181526020018280546110949061439c565b80156110e15780601f106110b6576101008083540402835291602001916110e1565b820191906000526020600020905b8154815290600101906020018083116110c457829003601f168201915b5050505050908060020180546110f69061439c565b80601f01602080910402602001604051908101604052809291908181526020018280546111229061439c565b801561116f5780601f106111445761010080835404028352916020019161116f565b820191906000526020600020905b81548152906001019060200180831161115257829003601f168201915b5050505050908060030154908060040154908060050154908060060154908060070154905088565b6111a96111a2611f3f565b8383612405565b5050565b6111be6111b8611f3f565b83612000565b6111fd576040517f08c379a00000000000000000000000000000000000000000000000000000000081526004016111f490613fba565b60405180910390fd5b61120984848484612572565b50505050565b60088060000180546112209061439c565b80601f016020809104026020016040519081016040528092919081815260200182805461124c9061439c565b80156112995780601f1061126e57610100808354040283529160200191611299565b820191906000526020600020905b81548152906001019060200180831161127c57829003601f168201915b5050505050908060010180546112ae9061439c565b80601f01602080910402602001604051908101604052809291908181526020018280546112da9061439c565b80156113275780601f106112fc57610100808354040283529160200191611327565b820191906000526020600020905b81548152906001019060200180831161130a57829003601f168201915b5050505050908060020154908060030154908060040154908060050154908060060154905087565b611357612efb565b60086040518060e00160405290816000820180546113749061439c565b80601f01602080910402602001604051908101604052809291908181526020018280546113a09061439c565b80156113ed5780601f106113c2576101008083540402835291602001916113ed565b820191906000526020600020905b8154815290600101906020018083116113d057829003601f168201915b505050505081526020016001820180546114069061439c565b80601f01602080910402602001604051908101604052809291908181526020018280546114329061439c565b801561147f5780601f106114545761010080835404028352916020019161147f565b820191906000526020600020905b81548152906001019060200180831161146257829003601f168201915b5050505050815260200160028201548152602001600382015481526020016004820154815260200160058201548152602001600682015481525050905090565b60606000600f600084815260200190815260200160002060405180610100016040529081600082015481526020016001820180546114fc9061439c565b80601f01602080910402602001604051908101604052809291908181526020018280546115289061439c565b80156115755780601f1061154a57610100808354040283529160200191611575565b820191906000526020600020905b81548152906001019060200180831161155857829003601f168201915b5050505050815260200160028201805461158e9061439c565b80601f01602080910402602001604051908101604052809291908181526020018280546115ba9061439c565b80156116075780601f106115dc57610100808354040283529160200191611607565b820191906000526020600020905b8154815290600101906020018083116115ea57829003601f168201915b50505050508152602001600382015481526020016004820154815260200160058201548152602001600682015481526020016007820154815250509050600061165382606001516125ce565b9050600061166483608001516125ce565b905060006116758460a001516125ce565b905060006116868560c001516125ce565b905060006116978660e001516125ce565b905060006116e187602001516116ac8b6125ce565b896040015189898989896040516020016116cd989796959493929190613a36565b60405160208183030381529060405261277b565b90506000816040516020016116f69190613b58565b60405160208183030381529060405290508098505050505050505050919050565b61171f612f38565b6000601060003373ffffffffffffffffffffffffffffffffffffffff1673ffffffffffffffffffffffffffffffffffffffff16815260200190815260200160002054905060008111156118f357600f600082815260200190815260200160002060405180610100016040529081600082015481526020016001820180546117a59061439c565b80601f01602080910402602001604051908101604052809291908181526020018280546117d19061439c565b801561181e5780601f106117f35761010080835404028352916020019161181e565b820191906000526020600020905b81548152906001019060200180831161180157829003601f168201915b505050505081526020016002820180546118379061439c565b80601f01602080910402602001604051908101604052809291908181526020018280546118639061439c565b80156118b05780601f10611885576101008083540402835291602001916118b0565b820191906000526020600020905b81548152906001019060200180831161189357829003601f168201915b5050505050815260200160038201548152602001600482015481526020016005820154815260200160068201548152602001600782015481525050915050611901565b6118fb612f38565b80925050505b90565b6000601060003373ffffffffffffffffffffffffffffffffffffffff1673ffffffffffffffffffffffffffffffffffffffff1681526020019081526020016000205490506000600f60008381526020019081526020016000209050611a12604051806060016040528060348152602001614cd26034913982600101805461198a9061439c565b80601f01602080910402602001604051908101604052809291908181526020018280546119b69061439c565b8015611a035780601f106119d857610100808354040283529160200191611a03565b820191906000526020600020905b8154815290600101906020018083116119e657829003601f168201915b50505050508360030154612939565b611ae46040518060400160405280601181526020017f426f73732025732068617320257320485000000000000000000000000000000081525060086000018054611a5b9061439c565b80601f0160208091040260200160405190810160405280929190818152602001828054611a879061439c565b8015611ad45780601f10611aa957610100808354040283529160200191611ad4565b820191906000526020600020905b815481529060010190602001808311611ab757829003601f168201915b5050505050600860020154612939565b6000816003015411611b2b576040517f08c379a0000000000000000000000000000000000000000000000000000000008152600401611b2290613f1a565b60405180910390fd5b600060086002015411611b73576040517f08c379a0000000000000000000000000000000000000000000000000000000008152600401611b6a90613eba565b60405180910390fd5b80600701546008600201541015611b94576000600860020181905550611bb3565b8060070154600860020154611ba991906142b2565b6008600201819055505b611bda604051806060016040528060288152602001614d46602891396008600201546129d8565b60086006015481600301541015611bfa5760008160030181905550611c18565b6008600601548160030154611c0f91906142b2565b81600301819055505b611c3e6040518060600160405280602a8152602001614ca8602a913982600301546129d8565b7f88751e3c7c7beb77318d9befb1a6ac7a858a7e6ec2593a0429851d817fd335896008600201548260030154604051611c789291906140c5565b60405180910390a15050565b6000600560008473ffffffffffffffffffffffffffffffffffffffff1673ffffffffffffffffffffffffffffffffffffffff16815260200190815260200160002060008373ffffffffffffffffffffffffffffffffffffffff1673ffffffffffffffffffffffffffffffffffffffff16815260200190815260200160002060009054906101000a900460ff16905092915050565b611dae81604051602401611d2c9190613c55565b6040516020818303038152906040527f41304fac000000000000000000000000000000000000000000000000000000007bffffffffffffffffffffffffffffffffffffffffffffffffffffffff19166020820180517bffffffffffffffffffffffffffffffffffffffffffffffffffffffff8381831617835250505050612a74565b50565b611e4d84848484604051602401611dcb9493929190613cbc565b6040516020818303038152906040527fd5cf17d0000000000000000000000000000000000000000000000000000000007bffffffffffffffffffffffffffffffffffffffffffffffffffffffff19166020820180517bffffffffffffffffffffffffffffffffffffffffffffffffffffffff8381831617835250505050612a74565b50505050565b6001816000016000828254019250508190555050565b60007f01ffc9a7000000000000000000000000000000000000000000000000000000007bffffffffffffffffffffffffffffffffffffffffffffffffffffffff1916827bffffffffffffffffffffffffffffffffffffffffffffffffffffffff1916149050919050565b60008073ffffffffffffffffffffffffffffffffffffffff166002600084815260200190815260200160002060009054906101000a900473ffffffffffffffffffffffffffffffffffffffff1673ffffffffffffffffffffffffffffffffffffffff1614159050919050565b600033905090565b816004600083815260200190815260200160002060006101000a81548173ffffffffffffffffffffffffffffffffffffffff021916908373ffffffffffffffffffffffffffffffffffffffff160217905550808273ffffffffffffffffffffffffffffffffffffffff16611fba836107c0565b73ffffffffffffffffffffffffffffffffffffffff167f8c5be1e5ebec7d5bd14f71427d1e84f3dd0314c0f7b2291e5b200ac8c7c3b92560405160405180910390a45050565b600061200b82611ed3565b61204a576040517f08c379a000000000000000000000000000000000000000000000000000000000815260040161204190613e7a565b60405180910390fd5b6000612055836107c0565b90508073ffffffffffffffffffffffffffffffffffffffff168473ffffffffffffffffffffffffffffffffffffffff1614806120c457508373ffffffffffffffffffffffffffffffffffffffff166120ac846105a3565b73ffffffffffffffffffffffffffffffffffffffff16145b806120d557506120d48185611c84565b5b91505092915050565b8273ffffffffffffffffffffffffffffffffffffffff166120fe826107c0565b73ffffffffffffffffffffffffffffffffffffffff1614612154576040517f08c379a000000000000000000000000000000000000000000000000000000000815260040161214b90613f7a565b60405180910390fd5b600073ffffffffffffffffffffffffffffffffffffffff168273ffffffffffffffffffffffffffffffffffffffff1614156121c4576040517f08c379a00000000000000000000000000000000000000000000000000000000081526004016121bb90613e3a565b60405180910390fd5b6121cf838383612a9d565b6121da600082611f47565b6001600360008573ffffffffffffffffffffffffffffffffffffffff1673ffffffffffffffffffffffffffffffffffffffff168152602001908152602001600020600082825461222a91906142b2565b925050819055506001600360008473ffffffffffffffffffffffffffffffffffffffff1673ffffffffffffffffffffffffffffffffffffffff168152602001908152602001600020600082825461228191906141d1565b92505081905550816002600083815260200190815260200160002060006101000a81548173ffffffffffffffffffffffffffffffffffffffff021916908373ffffffffffffffffffffffffffffffffffffffff160217905550808273ffffffffffffffffffffffffffffffffffffffff168473ffffffffffffffffffffffffffffffffffffffff167fddf252ad1be2c89b69c2b068fc378daa952ba7f163c4a11628f55a4df523b3ef60405160405180910390a4505050565b600081600001549050919050565b612362828260405180602001604052806000815250612aa2565b5050565b61240083838360405160240161237e93929190613dbc565b6040516020818303038152906040527f969cdd03000000000000000000000000000000000000000000000000000000007bffffffffffffffffffffffffffffffffffffffffffffffffffffffff19166020820180517bffffffffffffffffffffffffffffffffffffffffffffffffffffffff8381831617835250505050612a74565b505050565b8173ffffffffffffffffffffffffffffffffffffffff168373ffffffffffffffffffffffffffffffffffffffff161415612474576040517f08c379a000000000000000000000000000000000000000000000000000000000815260040161246b90613e5a565b60405180910390fd5b80600560008573ffffffffffffffffffffffffffffffffffffffff1673ffffffffffffffffffffffffffffffffffffffff16815260200190815260200160002060008473ffffffffffffffffffffffffffffffffffffffff1673ffffffffffffffffffffffffffffffffffffffff16815260200190815260200160002060006101000a81548160ff0219169083151502179055508173ffffffffffffffffffffffffffffffffffffffff168373ffffffffffffffffffffffffffffffffffffffff167f17307eab39ab6107e8899845ad3d59bd9653f200f220920489ca2b5937696c31836040516125659190613c3a565b60405180910390a3505050565b61257d8484846120de565b61258984848484612afd565b6125c8576040517f08c379a00000000000000000000000000000000000000000000000000000000081526004016125bf90613dfa565b60405180910390fd5b50505050565b60606000821415612616576040518060400160405280600181526020017f30000000000000000000000000000000000000000000000000000000000000008152509050612776565b600082905060005b60008214612648578080612631906143ff565b915050600a826126419190614227565b915061261e565b60008167ffffffffffffffff81111561268a577f4e487b7100000000000000000000000000000000000000000000000000000000600052604160045260246000fd5b6040519080825280601f01601f1916602001820160405280156126bc5781602001600182028036833780820191505090505b5090505b6000851461276f576001826126d591906142b2565b9150600a856126e49190614448565b60306126f091906141d1565b60f81b81838151811061272c577f4e487b7100000000000000000000000000000000000000000000000000000000600052603260045260246000fd5b60200101907effffffffffffffffffffffffffffffffffffffffffffffffffffffffffffff1916908160001a905350600a856127689190614227565b94506126c0565b8093505050505b919050565b606060008251905060008114156127a45760405180602001604052806000815250915050612934565b600060036002836127b591906141d1565b6127bf9190614227565b60046127cb9190614258565b905060006020826127dc91906141d1565b67ffffffffffffffff81111561281b577f4e487b7100000000000000000000000000000000000000000000000000000000600052604160045260246000fd5b6040519080825280601f01601f19166020018201604052801561284d5781602001600182028036833780820191505090505b5090506000604051806060016040528060408152602001614d06604091399050600181016020830160005b868110156128f15760038101905062ffffff818a015116603f8160121c168401518060081b905060ff603f83600c1c1686015116810190508060081b905060ff603f8360061c1686015116810190508060081b905060ff603f831686015116810190508060e01b90508084526004840193505050612878565b50600386066001811461290b576002811461291b57612926565b613d3d60f01b6002830352612926565b603d60f81b60018303525b508484525050819450505050505b919050565b6129d383838360405160240161295193929190613c77565b6040516020818303038152906040527ff362ca59000000000000000000000000000000000000000000000000000000007bffffffffffffffffffffffffffffffffffffffffffffffffffffffff19166020820180517bffffffffffffffffffffffffffffffffffffffffffffffffffffffff8381831617835250505050612a74565b505050565b612a7082826040516024016129ee929190613d8c565b6040516020818303038152906040527f9710a9d0000000000000000000000000000000000000000000000000000000007bffffffffffffffffffffffffffffffffffffffffffffffffffffffff19166020820180517bffffffffffffffffffffffffffffffffffffffffffffffffffffffff8381831617835250505050612a74565b5050565b60008151905060006a636f6e736f6c652e6c6f679050602083016000808483855afa5050505050565b505050565b612aac8383612c94565b612ab96000848484612afd565b612af8576040517f08c379a0000000000000000000000000000000000000000000000000000000008152600401612aef90613dfa565b60405180910390fd5b505050565b6000612b1e8473ffffffffffffffffffffffffffffffffffffffff16612e62565b15612c87578373ffffffffffffffffffffffffffffffffffffffff1663150b7a02612b47611f3f565b8786866040518563ffffffff1660e01b8152600401612b699493929190613b95565b602060405180830381600087803b158015612b8357600080fd5b505af1925050508015612bb457506040513d601f19601f82011682018060405250810190612bb1919061323b565b60015b612c37573d8060008114612be4576040519150601f19603f3d011682016040523d82523d6000602084013e612be9565b606091505b50600081511415612c2f576040517f08c379a0000000000000000000000000000000000000000000000000000000008152600401612c2690613dfa565b60405180910390fd5b805181602001fd5b63150b7a0260e01b7bffffffffffffffffffffffffffffffffffffffffffffffffffffffff1916817bffffffffffffffffffffffffffffffffffffffffffffffffffffffff191614915050612c8c565b600190505b949350505050565b600073ffffffffffffffffffffffffffffffffffffffff168273ffffffffffffffffffffffffffffffffffffffff161415612d04576040517f08c379a0000000000000000000000000000000000000000000000000000000008152600401612cfb90613f3a565b60405180910390fd5b612d0d81611ed3565b15612d4d576040517f08c379a0000000000000000000000000000000000000000000000000000000008152600401612d4490613e1a565b60405180910390fd5b612d5960008383612a9d565b6001600360008473ffffffffffffffffffffffffffffffffffffffff1673ffffffffffffffffffffffffffffffffffffffff1681526020019081526020016000206000828254612da991906141d1565b92505081905550816002600083815260200190815260200160002060006101000a81548173ffffffffffffffffffffffffffffffffffffffff021916908373ffffffffffffffffffffffffffffffffffffffff160217905550808273ffffffffffffffffffffffffffffffffffffffff16600073ffffffffffffffffffffffffffffffffffffffff167fddf252ad1be2c89b69c2b068fc378daa952ba7f163c4a11628f55a4df523b3ef60405160405180910390a45050565b600080823b905060008111915050919050565b828054612e819061439c565b90600052602060002090601f016020900481019282612ea35760008555612eea565b82601f10612ebc57805160ff1916838001178555612eea565b82800160010185558215612eea579182015b82811115612ee9578251825591602001919060010190612ece565b5b509050612ef79190612f7d565b5090565b6040518060e00160405280606081526020016060815260200160008152602001600081526020016000815260200160008152602001600081525090565b60405180610100016040528060008152602001606081526020016060815260200160008152602001600081526020016000815260200160008152602001600081525090565b5b80821115612f96576000816000905550600101612f7e565b5090565b6000612fad612fa884614113565b6140ee565b905082815260208101848484011115612fc557600080fd5b612fd084828561435a565b509392505050565b600081359050612fe781614c4b565b92915050565b600081359050612ffc81614c62565b92915050565b60008135905061301181614c79565b92915050565b60008151905061302681614c79565b92915050565b600082601f83011261303d57600080fd5b813561304d848260208601612f9a565b91505092915050565b60008135905061306581614c90565b92915050565b60006020828403121561307d57600080fd5b600061308b84828501612fd8565b91505092915050565b600080604083850312156130a757600080fd5b60006130b585828601612fd8565b92505060206130c685828601612fd8565b9150509250929050565b6000806000606084860312156130e557600080fd5b60006130f386828701612fd8565b935050602061310486828701612fd8565b925050604061311586828701613056565b9150509250925092565b6000806000806080858703121561313557600080fd5b600061314387828801612fd8565b945050602061315487828801612fd8565b935050604061316587828801613056565b925050606085013567ffffffffffffffff81111561318257600080fd5b61318e8782880161302c565b91505092959194509250565b600080604083850312156131ad57600080fd5b60006131bb85828601612fd8565b92505060206131cc85828601612fed565b9150509250929050565b600080604083850312156131e957600080fd5b60006131f785828601612fd8565b925050602061320885828601613056565b9150509250929050565b60006020828403121561322457600080fd5b600061323284828501613002565b91505092915050565b60006020828403121561324d57600080fd5b600061325b84828501613017565b91505092915050565b60006020828403121561327657600080fd5b600061328484828501613056565b91505092915050565b600061329983836138aa565b905092915050565b6132aa816142e6565b82525050565b60006132bb82614154565b6132c58185614182565b9350836020820285016132d785614144565b8060005b8581101561331357848403895281516132f4858261328d565b94506132ff83614175565b925060208a019950506001810190506132db565b50829750879550505050505092915050565b61332e816142f8565b82525050565b600061333f8261415f565b6133498185614193565b9350613359818560208601614369565b61336281614535565b840191505092915050565b60006133788261416a565b61338281856141a4565b9350613392818560208601614369565b61339b81614535565b840191505092915050565b60006133b18261416a565b6133bb81856141b5565b93506133cb818560208601614369565b6133d481614535565b840191505092915050565b60006133ea8261416a565b6133f481856141c6565b9350613404818560208601614369565b80840191505092915050565b600061341d6002836141c6565b915061342882614546565b600282019050919050565b60006134406032836141b5565b915061344b8261456f565b604082019050919050565b60006134636028836141c6565b915061346e826145be565b602882019050919050565b60006134866002836141c6565b91506134918261460d565b600282019050919050565b60006134a9601c836141b5565b91506134b482614636565b602082019050919050565b60006134cc6001836141c6565b91506134d78261465f565b600182019050919050565b60006134ef600e836141c6565b91506134fa82614688565b600e82019050919050565b60006135126024836141b5565b915061351d826146b1565b604082019050919050565b60006135356019836141b5565b915061354082614700565b602082019050919050565b6000613558602c836141b5565b915061356382614729565b604082019050919050565b600061357b6038836141b5565b915061358682614778565b604082019050919050565b600061359e601c836141b5565b91506135a9826147c7565b602082019050919050565b60006135c1602a836141b5565b91506135cc826147f0565b604082019050919050565b60006135e46029836141b5565b91506135ef8261483f565b604082019050919050565b60006136076021836141b5565b91506136128261488e565b604082019050919050565b600061362a6054836141c6565b9150613635826148dd565b605482019050919050565b600061364d6020836141b5565b915061365882614952565b602082019050919050565b60006136706001836141c6565b915061367b8261497b565b600182019050919050565b6000613693602c836141b5565b915061369e826149a4565b604082019050919050565b60006136b66011836141c6565b91506136c1826149f3565b601182019050919050565b60006136d96029836141b5565b91506136e482614a1c565b604082019050919050565b60006136fc600a836141c6565b915061370782614a6b565b600a82019050919050565b600061371f6002836141c6565b915061372a82614a94565b600282019050919050565b6000613742600a836141c6565b915061374d82614abd565b600a82019050919050565b60006137656021836141b5565b915061377082614ae6565b604082019050919050565b6000613788601d836141c6565b915061379382614b35565b601d82019050919050565b60006137ab6029836141c6565b91506137b682614b5e565b602982019050919050565b60006137ce6031836141b5565b91506137d982614bad565b604082019050919050565b60006137f16037836141c6565b91506137fc82614bfc565b603782019050919050565b600060e0830160008301518482036000860152613824828261336d565b9150506020830151848203602086015261383e828261336d565b91505060408301516138536040860182613a18565b5060608301516138666060860182613a18565b5060808301516138796080860182613a18565b5060a083015161388c60a0860182613a18565b5060c083015161389f60c0860182613a18565b508091505092915050565b6000610100830160008301516138c36000860182613a18565b50602083015184820360208601526138db828261336d565b915050604083015184820360408601526138f5828261336d565b915050606083015161390a6060860182613a18565b50608083015161391d6080860182613a18565b5060a083015161393060a0860182613a18565b5060c083015161394360c0860182613a18565b5060e083015161395660e0860182613a18565b508091505092915050565b60006101008301600083015161397a6000860182613a18565b5060208301518482036020860152613992828261336d565b915050604083015184820360408601526139ac828261336d565b91505060608301516139c16060860182613a18565b5060808301516139d46080860182613a18565b5060a08301516139e760a0860182613a18565b5060c08301516139fa60c0860182613a18565b5060e0830151613a0d60e0860182613a18565b508091505092915050565b613a2181614350565b82525050565b613a3081614350565b82525050565b6000613a41826136ef565b9150613a4d828b6133df565b9150613a5882613735565b9150613a64828a6133df565b9150613a6f82613479565b9150613a7a8261361d565b9150613a85826134bf565b9150613a90826136a9565b9150613a9c82896133df565b9150613aa782613479565b9150613ab2826137e4565b9150613abe82886133df565b9150613ac9826134e2565b9150613ad582876133df565b9150613ae082613410565b9150613aeb82613456565b9150613af782866133df565b9150613b02826134e2565b9150613b0e82856133df565b9150613b1982613410565b9150613b248261379e565b9150613b3082846133df565b9150613b3b82613663565b9150613b4682613712565b91508190509998505050505050505050565b6000613b638261377b565b9150613b6f82846133df565b915081905092915050565b6000602082019050613b8f60008301846132a1565b92915050565b6000608082019050613baa60008301876132a1565b613bb760208301866132a1565b613bc46040830185613a27565b8181036060830152613bd68184613334565b905095945050505050565b6000606082019050613bf660008301866132a1565b613c036020830185613a27565b613c106040830184613a27565b949350505050565b60006020820190508181036000830152613c3281846132b0565b905092915050565b6000602082019050613c4f6000830184613325565b92915050565b60006020820190508181036000830152613c6f81846133a6565b905092915050565b60006060820190508181036000830152613c9181866133a6565b90508181036020830152613ca581856133a6565b9050613cb46040830184613a27565b949350505050565b60006080820190508181036000830152613cd681876133a6565b90508181036020830152613cea81866133a6565b9050613cf96040830185613a27565b613d066060830184613a27565b95945050505050565b600060e0820190508181036000830152613d29818a6133a6565b90508181036020830152613d3d81896133a6565b9050613d4c6040830188613a27565b613d596060830187613a27565b613d666080830186613a27565b613d7360a0830185613a27565b613d8060c0830184613a27565b98975050505050505050565b60006040820190508181036000830152613da681856133a6565b9050613db56020830184613a27565b9392505050565b60006060820190508181036000830152613dd681866133a6565b9050613de56020830185613a27565b613df26040830184613a27565b949350505050565b60006020820190508181036000830152613e1381613433565b9050919050565b60006020820190508181036000830152613e338161349c565b9050919050565b60006020820190508181036000830152613e5381613505565b9050919050565b60006020820190508181036000830152613e7381613528565b9050919050565b60006020820190508181036000830152613e938161354b565b9050919050565b60006020820190508181036000830152613eb38161356e565b9050919050565b60006020820190508181036000830152613ed381613591565b9050919050565b60006020820190508181036000830152613ef3816135b4565b9050919050565b60006020820190508181036000830152613f13816135d7565b9050919050565b60006020820190508181036000830152613f33816135fa565b9050919050565b60006020820190508181036000830152613f5381613640565b9050919050565b60006020820190508181036000830152613f7381613686565b9050919050565b60006020820190508181036000830152613f93816136cc565b9050919050565b60006020820190508181036000830152613fb381613758565b9050919050565b60006020820190508181036000830152613fd3816137c1565b9050919050565b60006020820190508181036000830152613ff48184613807565b905092915050565b600060208201905081810360008301526140168184613961565b905092915050565b60006020820190506140336000830184613a27565b92915050565b60006101008201905061404f600083018b613a27565b8181036020830152614061818a6133a6565b9050818103604083015261407581896133a6565b90506140846060830188613a27565b6140916080830187613a27565b61409e60a0830186613a27565b6140ab60c0830185613a27565b6140b860e0830184613a27565b9998505050505050505050565b60006040820190506140da6000830185613a27565b6140e76020830184613a27565b9392505050565b60006140f8614109565b905061410482826143ce565b919050565b6000604051905090565b600067ffffffffffffffff82111561412e5761412d614506565b5b61413782614535565b9050602081019050919050565b6000819050602082019050919050565b600081519050919050565b600081519050919050565b600081519050919050565b6000602082019050919050565b600082825260208201905092915050565b600082825260208201905092915050565b600082825260208201905092915050565b600082825260208201905092915050565b600081905092915050565b60006141dc82614350565b91506141e783614350565b9250827fffffffffffffffffffffffffffffffffffffffffffffffffffffffffffffffff0382111561421c5761421b614479565b5b828201905092915050565b600061423282614350565b915061423d83614350565b92508261424d5761424c6144a8565b5b828204905092915050565b600061426382614350565b915061426e83614350565b9250817fffffffffffffffffffffffffffffffffffffffffffffffffffffffffffffffff04831182151516156142a7576142a6614479565b5b828202905092915050565b60006142bd82614350565b91506142c883614350565b9250828210156142db576142da614479565b5b828203905092915050565b60006142f182614330565b9050919050565b60008115159050919050565b60007fffffffff0000000000000000000000000000000000000000000000000000000082169050919050565b600073ffffffffffffffffffffffffffffffffffffffff82169050919050565b6000819050919050565b82818337600083830152505050565b60005b8381101561438757808201518184015260208101905061436c565b83811115614396576000848401525b50505050565b600060028204905060018216806143b457607f821691505b602082108114156143c8576143c76144d7565b5b50919050565b6143d782614535565b810181811067ffffffffffffffff821117156143f6576143f5614506565b5b80604052505050565b600061440a82614350565b91507fffffffffffffffffffffffffffffffffffffffffffffffffffffffffffffffff82141561443d5761443c614479565b5b600182019050919050565b600061445382614350565b915061445e83614350565b92508261446e5761446d6144a8565b5b828206905092915050565b7f4e487b7100000000000000000000000000000000000000000000000000000000600052601160045260246000fd5b7f4e487b7100000000000000000000000000000000000000000000000000000000600052601260045260246000fd5b7f4e487b7100000000000000000000000000000000000000000000000000000000600052602260045260246000fd5b7f4e487b7100000000000000000000000000000000000000000000000000000000600052604160045260246000fd5b6000601f19601f8301169050919050565b7f7d2c000000000000000000000000000000000000000000000000000000000000600082015250565b7f4552433732313a207472616e7366657220746f206e6f6e20455243373231526560008201527f63656976657220696d706c656d656e7465720000000000000000000000000000602082015250565b7f7b2274726169745f74797065223a2022466f72636520506f696e7473222c202260008201527f76616c7565223a20000000000000000000000000000000000000000000000000602082015250565b7f222c000000000000000000000000000000000000000000000000000000000000600082015250565b7f4552433732313a20746f6b656e20616c7265616479206d696e74656400000000600082015250565b7f2c00000000000000000000000000000000000000000000000000000000000000600082015250565b7f2c20226d61785f76616c7565223a000000000000000000000000000000000000600082015250565b7f4552433732313a207472616e7366657220746f20746865207a65726f2061646460008201527f7265737300000000000000000000000000000000000000000000000000000000602082015250565b7f4552433732313a20617070726f766520746f2063616c6c657200000000000000600082015250565b7f4552433732313a206f70657261746f7220717565727920666f72206e6f6e657860008201527f697374656e7420746f6b656e0000000000000000000000000000000000000000602082015250565b7f4552433732313a20617070726f76652063616c6c6572206973206e6f74206f7760008201527f6e6572206e6f7220617070726f76656420666f7220616c6c0000000000000000602082015250565b7f4572726f723a20426f737320646f6573206e6f74206861766520485000000000600082015250565b7f4552433732313a2062616c616e636520717565727920666f7220746865207a6560008201527f726f206164647265737300000000000000000000000000000000000000000000602082015250565b7f4552433732313a206f776e657220717565727920666f72206e6f6e657869737460008201527f656e7420746f6b656e0000000000000000000000000000000000000000000000602082015250565b7f4572726f723a2043686172616374657220646f6573206e6f742068617665204860008201527f5000000000000000000000000000000000000000000000000000000000000000602082015250565b7f226465736372697074696f6e223a20225468697320697320616e204e4654207460008201527f686174206c6574732070656f706c6520706c617920696e207468652067616d6560208201527f205374617220466967687420536c617965722122000000000000000000000000604082015250565b7f4552433732313a206d696e7420746f20746865207a65726f2061646472657373600082015250565b7f7d00000000000000000000000000000000000000000000000000000000000000600082015250565b7f4552433732313a20617070726f76656420717565727920666f72206e6f6e657860008201527f697374656e7420746f6b656e0000000000000000000000000000000000000000602082015250565b7f22696d616765223a2022697066733a2f2f000000000000000000000000000000600082015250565b7f4552433732313a207472616e73666572206f6620746f6b656e2074686174206960008201527f73206e6f74206f776e0000000000000000000000000000000000000000000000602082015250565b7f7b226e616d65223a202200000000000000000000000000000000000000000000600082015250565b7f5d7d000000000000000000000000000000000000000000000000000000000000600082015250565b7f202d2d204e465420232000000000000000000000000000000000000000000000600082015250565b7f4552433732313a20617070726f76616c20746f2063757272656e74206f776e6560008201527f7200000000000000000000000000000000000000000000000000000000000000602082015250565b7f646174613a6170706c69636174696f6e2f6a736f6e3b6261736536342c000000600082015250565b7f7b2274726169745f74797065223a202241747461636b2044616d616765222c2060008201527f2276616c7565223a200000000000000000000000000000000000000000000000602082015250565b7f4552433732313a207472616e736665722063616c6c6572206973206e6f74206f60008201527f776e6572206e6f7220617070726f766564000000000000000000000000000000602082015250565b7f2261747472696275746573223a205b7b2274726169745f74797065223a20224860008201527f6561746820506f696e7473222c202276616c7565223a20000000000000000000602082015250565b614c54816142e6565b8114614c5f57600080fd5b50565b614c6b816142f8565b8114614c7657600080fd5b50565b614c8281614304565b8114614c8d57600080fd5b50565b614c9981614350565b8114614ca457600080fd5b5056fe426f73732061747461636b656420706c617965722e20506c6179657220686173202573204850206e6f770a506c617965722077697468206368617261637465722025732061626f757420746f2061747461636b20776974682048502025734142434445464748494a4b4c4d4e4f505152535455565758595a6162636465666768696a6b6c6d6e6f707172737475767778797a303132333435363738392b2f506c617965722061747461636b656420626f73732e20426f737320686173202573204850206e6f774d696e746564204e4654207769746820746f6b656e496420257320616e6420636861726163746572496e646578202573a26469706673582212203e9395bad8f054470a667a10f4b255984728a7fa0684ea670cfb31cae2d1ce9364736f6c63430008040033496e697469616c697a656420626f737320257320776974682048502025732c20666f726365202573496e697469616c697a656420257320776974682048502025732c20666f726365202573",
  "linkReferences": {},
  "deployedLinkReferences": {}
}